S00C00006D61696E2E7372656373
S113000018E4FF1F7D110000791100007911000030
S113001000000000000000000000000000000000DC
S11300200000000000000000000000007911000042
S11300300000000000000000791100000000000032
S11300407D1100007D1100007D1100007D11000074
S1130050000000007D1100007D1100007D110000F2
S11300607D1100007D1100007D1100007D11000054
S11300707D1100007D1100007D1100007D11000044
S11300807D1100007D1100007D1100007D11000034
S11300907D1100007D1100007D11000000000000B2
S11300A07D1100007D1100007D1100007D11000014
S11300B07D110000000000007D1100007D0D000096
S1130400FFFFFFFFFFFFFFFFFFFFFFFFFEFFFFFFF9
S113041088210022254B2648490110B55A501C5802
S11304202449214319508021234B090218680143B0
S1130430802019601968814319602049CA610A62E1
S11304408A62CA624A658A65CA651D494A648A64C1
S11304501C490A601C490A614A611C4919601C490B
S11304605A609A6019611B495961C0210903996155
S11304701949D96119491A625A629A62DA6219638E
S113048011215A639A63DA631A645A6499641131C4
S1130490DA641A6559659A65DA651968104A114073
S11304A019601A6802431A6010BDC0460070044007
S11304B038100000003C08000030054000A0044053
S11304C000B0044000C0044000D004406384B00085
S11304D0800D0E006001300000011000000088440F
S11304E0FF7FFFFF00B504291BD94522FF215C4B88
S11304F028209954143A7739995422390A3A99544C
S113050000221A542D30195420395A540A230B321C
S113051054498C4600216344197066236244137065
S113052000BD0F28E1D8504B80001B580139490009
S11305309F464C484D4B8446FF205A5C62441070E1
S1130540882259184B7863441A70E9E74548474BA9
S113055084465A5CEE206244F1E74248434B8446A9
S1130560BB205A5C62441070EE2259184B786344E5
S11305701A70D5E73B483D4B844677205A5C59189E
S113058062441070CC224B7863441A70C8E7354833
S1130590364B84465A5C55206244E4E73148334B79
S11305A08446CC205A5C62441070662259184B78F9
S11305B063441A70B4E72B482C4B8446DD205A5C04
S11305C062441070AA2259184B7863441A70A7E742
S11305D02448264B84465A5CFF206244F1E72148B4
S11305E0224B84465A5C00206244BCE71D481F4BE2
S11305F084465A5CFF206244B5E71A481B4B844684
S11306005A5CCC206244AEE71648184B8446EE2070
S11306105A5C59184B7862446344107018707FE731
S11306201048124B8446FF205A5C591862441070DB
S113063022224B7863441A7072E70A480B4B8446B3
S11306405A5CBB2062447AE70648084B84465A5CED
S113065077206244A8E7054A535C51184A7857E763
S1130660003005402030054004160000C416000088
S113067000224521084B5A5414395A540A395A5401
S113068001315A542D315A540F395A541C395A5481
S113069001315A547047C04600300540C301FF2061
S11306A0184002231843014B58607047003005403E
S11306B02B4B70B50400984215D94522FF21294BD4
S11306C028209954143A7739995422390A3A99547A
S11306D000221A542D30195420395A541C395A54B2
S11306E001315A5470BDFA21890000F06DFD0121D9
S11306F085B2C0B2FFF7F6FEA805401B8001401981
S113070040004019C0006421001900F0E7FD0221F7
S1130710C0B2FFF7E7FE6421200000F055FD82B26D
S11307204006831A9B009818C000801A80000A2192
S1130730001900F0D3FD0321C0B2FFF7D3FE0A2154
S1130740200000F041FD02004001801A8000801A60
S1130750400000190421C0B2FFF7C4FEC2E7C0463E
S11307600F2700000030054070B505000F2401215B
S1130770000BFFF7B7FE281220400221FFF7B2FE5C
S1130780281120400321FFF7ADFE2C40414BA4006B
S11307901B599F462A22EE213F4B99540132663958
S11307A0995470BD2A2200213B4B99540132663181
S11307B09954F6E72A227721374B9954013255315F
S11307C09954EEE72A225521334B99540132993139
S11307D09954E6E72A22CC212F4B995401326639E9
S11307E09954DEE72A22DD212B4B99540132333907
S11307F09954D6E72A22FF21274B995401325539BF
S11308009954CEE72A220021234B99540132EE3128
S11308109954C6E72A22FF211F4B995401321139FA
S11308209954BEE72A22CC211B4B99540132223120
S11308309954B6E7EE222A21174B5A5401315A54DF
S1130840AFE72A22FF21144B99540132DD39995420
S1130850A7E72A22BB21104B99540132333999540A
S11308609FE72A2277210C4B99540132113999546C
S113087097E72A22FF21084B99540132773999547A
S11308808FE72A22BB21044B995401323331995406
S113089087E7C0464416000000300540632370B566
S11308A004000D00834201D38B4215D24522FF215F
S11308B01C4B28209954143A7739995422390A3A0E
S11308C0995400221A542D30195420395A541C3981
S11308D05A5401315A5470BD0A2100F075FC0121AB
S11308E0C0B2FFF7FFFD0A21200000F0F3FCC8B2FC
S11308F00221FFF7F7FD0A21280000F065FC03211F
S1130900C0B2FFF7EFFD0A21280000F0E3FCC8B2F3
S11309100421FFF7E7FD2B22112002498B5C0343DE
S11309208B54D8E7003005404522FF214C4B10B5CD
S11309309954143A7739995422390A3A9954282403
S113094000221A552D34195520395A540F2804D928
S11309502A215A5401315A5410BD424B80001B586D
S11309609F462A22EE213E4B99540132663999540E
S1130970F2E72A22FF213A4B9954013277399954EC
S1130980EAE72A227721364B9954013211399954D6
S1130990E2E72A22BB21324B99540132333999546C
S11309A0DAE72A22FF212E4B99540132DD3999547A
S11309B0D2E7EE222A212A4B5A5401315A54CBE76A
S11309C02A22CC21264B9954013222319954C3E76F
S11309D02A22FF21224B9954013211399954BBE741
S11309E02A2200211E4B99540132EE319954B3E767
S11309F02A22FF211A4B9954013255399954ABE7F5
S1130A002A22DD21164B9954013233399954A3E734
S1130A102A22CC21124B99540132663999549BE70E
S1130A202A2255210E4B995401329931995493E756
S1130A302A2277210A4B99540132553199548BE774
S1130A402A220021064B995401326631995483E7D6
S1130A502A22BB21024B99540132333199547BE74A
S1130A60003005408416000082B06B46D8809A1D81
S1130A70DB8812885B0992099B18B4225B08181C56
S1130A805200934200D9101C80B202B07047C04695
S1130A900322024B1A7000225A707047004006402D
S1130AA00200002382B040010193801A8000019B60
S1130AB08018C000984205DD019B01330193019B1E
S1130AC08342F9DB02B0704788220021144B5201A3
S1130AD09950802213491201585802435A508122D6
S1130AE0114B5200D96811481143D960196B0A435C
S1130AF00F491A634A6902404A61A022D968120365
S1130B001143D960196B0A43C7211A63094A890042
S1130B1053581B021B0A535080231B061360704753
S1130B20007004403810000000B00440F7EFFFFFED
S1130B3080F00F4000E100E0882200210E4B5201BA
S1130B4010B59950C0220D499201585820240243EF
S1130B505A50802380200A4A5B005361094A800569
S1130B605367094A536923435361084B5969014345
S1130B7059615460586010BD007004403810000082
S1130B8000C0044000D00440C0F00F4000F10F400A
S1130B902022014BDA607047C0F00F408022024BE4
S1130BA09205DA607047C04600F10F404020174BB1
S1130BB017495A5802435A508021164A89019858B5
S1130BC00143A02099501449C000086648661420C7
S1130BD0124948706C30887080219858090101438B
S1130BE099500F4A0F4B51690B43536180220E4BAE
S1130BF012061A60C02080224000195812021143C4
S1130C00195019680A431A607047C04600700440BE
S1130C10341000003810000000D00440006006408A
S1130C2000B0044000010A0100E100E010B50D210C
S1130C301D2000F0C3F940222B211D2000F082F971
S1130C4040242B211D2000F0B9F90442F9D10022DF
S1130C500E211D2000F076F902222B211D2000F028
S1130C6071F900222C211D2000F06CF901222D21A4
S1130C701D2000F067F901222E211D2000F062F9E9
S1130C803D222A211D2000F05DF910BD70B5334CC2
S1130C900622230001211D2000F0E8F92278637860
S1130CA0120213431BB22E4A9B109BB21380A178ED
S1130CB0E37809020B431BB22A499B109BB20B80B9
S1130CC020796379000203431BB227489B109BB22F
S1130CD003801388254CDB085B42DBB223700B884E
S1130CE0234DDB085B42DBB22B70224B02889C460F
S1130CF007236244D1170B409B18DB101E4E5B4246
S1130D00DBB200222A211D20337000F01BF9227867
S1130D102F211D20D2B200F015F92A7830211D2090
S1130D20D2B200F00FF9327831211D20D2B200F096
S1130D3009F900222C211D2000F004F901222D21A3
S1130D401D2000F0FFF801222E211D2000F0FAF8EA
S1130D503D222A211D2000F0F5F870BD08E0FF1F98
S1130D6006E0FF1F10E0FF1F0EE0FF1F13E0FF1F50
S1130D7012E0FF1F00F0FFFF04E0FF1F80230E4A74
S1130D805B04D16810B5194206D0D1680B43D36017
S1130D9001220A4B1A6010BD116B194206D0116B67
S1130DA00B4313630222054B1A60F4E751690B43AA
S1130DB05361FFF76BFFEEE700B0044000E0FF1F54
S1130DC0F0B5DE464E464546574603220024E0B5BC
S1130DD0504B83B01A705C70FFF71AFB88224E4B9D
S1130DE052019C50C0224D4992015858203402436C
S1130DF05A50802380204A4A5B005361494A800547
S1130E005367494A0125536923435361474B596941
S1130E100143596154605860FFF756FEFFF7C6FE60
S1130E20FFF704FF424B434E9946434B434F9846CA
S1130E30434C3368012B27D0012D2BD0B4235B0006
S1130E409A4600239B46022D41D0032D54D143469C
S1130E501A88530992099B185B08181C534502D938
S1130E60B4235B00181C80B2FFF722FC5B4601939D
S1130E70019BA3424ADC019B01330193019BA342E2
S1130E80F9DD3368012BD7D100230135EDB233608E
S1130E90032DD3D9B4235B009B4600239A463A889A
S1130EA0530992099B185B08181C5B4502D9B423AB
S1130EB05B00181C80B2FFF7FBFB53460193019BB8
S1130EC0A3421EDC0125D6E73368012BDCD04B4658
S1130ED01A88530992099B185B08181C534502D9B8
S1130EE0B4235B00181C80B2FFF7E2FB5B4601935E
S1130EF0019BA342BFDDE7E70193019BA342BADD57
S1130F0097E733680125012BC9D1BDE73368012B6D
S1130F109DD1B9E70040064000700440381000003D
S1130F2000C0044000D00440C0F00F4000F10F4066
S1130F3010E0FF1F00E0FF1F0EE0FF1F06E0FF1F91
S1130F401FA1070030B510251B4B40009C78C0B290
S1130F502C439C709C7810352C439C70022418718F
S1130F60D8780442FCD00224D8782043C0B2D87088
S1130F70022019711049CB781842FCD00220CB789A
S1130F800343DBB2CB700A7102210B4AD3781942B6
S1130F90FCD00221D3780B432021DBB2D3709378A9
S1130FA08B439370937810398B4393703223C046EC
S1130FB0013B002BFBD130BD0060064010B510246E
S1130FC0294B40009A7822439A709A78103422432D
S1130FD09A70C2B21A711E3CDA781442FCD0022410
S1130FE0DA782243D2B2DA70197102211E4AD37818
S1130FF01942FCD00221D3780B430421DBB2D37015
S113100093780B43937001231843C0B21071164AAE
S11310100239D3781942FCD00221D3780B43102132
S1131020DBB2D37093788B439370937808390B4376
S1131030937013790C4A0639D3781942FCD00221F3
S1131040D3780B432021DBB2D37093788B43937016
S1131050937810398B43937032231079C0B2C04611
S1131060013B002BFBD110BD0060064070B510267B
S11310703C4C4000A5783543A570A578103635431F
S1131080A570C5B225711E3EE5782E42FCD002261D
S1131090E5783543EDB2E57002252171314CE178F4
S11310A00D42FCD00225E17829430425C9B2E17040
S11310B0A1782943A17001210843C0B22071022400
S11310C02848C1780C42FCD00224C1782143102462
S11310D0C9B2C1708178A14381708178083CA14371
S11310E0817001791F48063CC1780C42FCD002246F
S11310F0C178951E2143C9B2C170002D11DD0024B1
S11311000226022017490A791A700133CA7810425C
S1131110FCD0CA7801343243D2B2E4B2CA70AC42D1
S1131120F1DB08200F4A9178014391701179063858
S11311301970D1780842FCD00220D17801432020D4
S1131140C9B2D170917881439170917810388143FC
S1131150917012795A703223C046013B002BFBD1A7
S113116070BDC04600600640002804DD0023C04670
S113117001339842FBD17047FEE7C0460D480E4B41
S113118010B5984207D2013B1A1A920801320B4952
S1131190920000F08FF90A480A4B984207D2013BAB
S11311A01A1A920801320021920000F0D7F9FFF7D1
S11311B007FE10BD00E0FF1F00E0FF1FD416000073
S11311C000E0FF1F14E0FF1F002243088B4274D38A
S11311D003098B425FD3030A8B4244D3030B8B4234
S11311E028D3030C8B420DD3FF22090212BA030C3D
S11311F08B4202D31212090265D0030B8B4219D31E
S113120000E0090AC30B8B4201D3CB03C01A52413D
S1131210830B8B4201D38B03C01A5241430B8B4285
S113122001D34B03C01A5241030B8B4201D30B036E
S1131230C01A5241C30A8B4201D3CB02C01A524195
S1131240830A8B4201D38B02C01A5241430A8B4258
S113125001D34B02C01A5241030A8B4201D30B0241
S1131260C01A5241CDD2C3098B4201D3CB01C01A5B
S1131270524183098B4201D38B01C01A5241430965
S11312808B4201D34B01C01A524103098B4201D353
S11312900B01C01A5241C3088B4201D3CB00C01AC0
S11312A0524183088B4201D38B00C01A5241430838
S11312B08B4201D34B00C01A5241411A00D201465D
S11312C0524110467047FFE701B5002000F0F0F8E6
S11312D002BDC0460029F7D076E7704703460B43AA
S11312E07FD4002243088B4274D303098B425FD31B
S11312F0030A8B4244D3030B8B4228D3030C8B4247
S11313000DD3FF22090212BA030C8B4202D312122C
S1131310090265D0030B8B4219D300E0090AC30B01
S11313208B4201D3CB03C01A5241830B8B4201D3AE
S11313308B03C01A5241430B8B4201D34B03C01A97
S11313405241030B8B4201D30B03C01A5241C30A0F
S11313508B4201D3CB02C01A5241830A8B4201D380
S11313608B02C01A5241430A8B4201D34B02C01A6A
S11313705241030A8B4201D30B02C01A5241CDD20F
S1131380C3098B4201D3CB01C01A524183098B425A
S113139001D38B01C01A524143098B4201D34B0143
S11313A0C01A524103098B4201D30B01C01A5241A6
S11313B0C3088B4201D3CB00C01A524183088B422D
S11313C001D38B00C01A524143088B4201D34B0016
S11313D0C01A5241411A00D2014652411046704788
S11313E05DE0CA0F00D04942031000D3404253408D
S11313F000229C4603098B422DD3030A8B4212D34D
S1131400FC22890112BA030A8B420CD3890192117E
S11314108B4208D3890192118B4204D389013AD0BB
S1131420921100E08909C3098B4201D3CB01C01A90
S1131430524183098B4201D38B01C01A52414309A3
S11314408B4201D34B01C01A524103098B4201D391
S11314500B01C01A5241C3088B4201D3CB00C01AFE
S1131460524183088B4201D38B00C01A5241D9D216
S113147043088B4201D34B00C01A5241411A00D297
S11314800146634652415B10104601D34042002B93
S113149000D54942704763465B1000D3404201B512
S11314A0002000F005F802BD0029F8D016E77047C7
S11314B07047C046F0B5C64600B50F2A43D90B00A5
S11314C0032603431E400C000300002E40D11500E8
S11314D0103D2D09AC462D01A846804400E03B0098
S11314E0676825685F60E7681D60DF601F00A568A6
S11314F010379D6010344345F1D165460F230C2409
S113150001352D01491913404519144223D08C5932
S1131510AC5104369C1B032CF9D80324043B9B08D0
S113152001339B002240ED18C918561E002A07D02B
S1131530002300E02300CA5C5C1CEA549E42F9D1FB
S113154004BC9046F0BD0500561E002AF0D1F7E712
S1131550561E0500ECE71A00F6E7C046F0B5050094
S113156083074AD0541E002A44D0CEB2030003227B
S113157002E00135013C3DD301332E701342F8D112
S1131580032C2FD9FF220A40150215432A041543C0
S11315900F2C35D92700103F3F093E01B4461E00E9
S11315A01A0010366644156055609560D560103297
S11315B0B242F8D10F260C2201373F012640DB1935
S11315C03700224217D03E1FB608B400A4461A00C2
S11315D01C1D644420C2A242FCD103240136B6007F
S11315E09B193C40002C05D0C9B21C191970013359
S11315F09C42FBD1F0BD3400F4E714000300BFE7C4
S11316002700E0E75A0500005606000074050000B4
S11316108E0500009C050000B6050000D005000002
S1131620DE050000EC050000FA05000008060000D5
S1131630200600003A0600004806000032050000BB
S11316404C05000082080000A4070000B407000055
S1131650C4070000D4070000E4070000F4070000FA
S113166004080000140800002408000034080000E6
S113167042080000520800006208000072080000DE
S113168094070000500A0000400A0000300A0000DD
S1131690200A0000100A0000000A0000F0090000FF
S11316A0E0090000D0090000C0090000B2090000F0
S11316B0A2090000920900008209000072090000DA
S10F16C0620900002511070835260A0BFA
S10716CCF8B5C04663
S10716D0F8B5C0465F
S9030410E8
